:100000000C945D000C9485000C9485000C94850084
:100010000C9485000C9485000C9485000C9485004C
:100020000C9485000C9485000C9485000C9443017D
:100030000C9485000C9485000C9485000C9485002C
:100040000C94F9000C9485000C9485000C948500A8
:100050000C9485000C9485000C9485000C9485000C
:100060000C9485000C9485000000000024002700FB
:100070002A0000000000250028002B0004040404CE
:100080000404040402020202020203030303030342
:10009000010204081020408001020408102001021F
:1000A00004081020000000080002010000030407FB
:1000B00000000000000000007E0311241FBECFEFEF
:1000C000D8E0DEBFCDBF11E0A0E0B1E0E0E3F8E0B2
:1000D00002C005900D92A030B107D9F721E0A0E051
:1000E000B1E001C01D92A233B207E1F710E0CDE507
:1000F000D0E004C02197FE010E941004CC35D10746
:10010000C9F70E9404020C9416040C94000090E0BD
:10011000FC01EC55FF4F2491FC01E057FF4F349157
:10012000FC01E458FF4FE491EE2309F43CC0222384
:1001300039F1233091F038F42130A9F0223001F563
:1001400084B58F7D12C0273091F02830A1F0243083
:10015000B9F4809180008F7D03C0809180008F77FB
:10016000809380000DC084B58F7784BD09C08091D5
:10017000B0008F7703C08091B0008F7D8093B00076
:10018000F0E0EE0FFF1FEE58FF4FA591B4919FB71F
:10019000F894611104C08C913095382302C0EC9121
:1001A0003E2B3C939FBF08953FB7F89480912E015A
:1001B00090912F01A0913001B091310126B5A89BFB
:1001C00005C02F3F19F00196A11DB11D3FBFBA2FE9
:1001D000A92F982F8827820F911DA11DB11DBC0149
:1001E000CD0142E0660F771F881F991F4A95D1F70E
:1001F00008951F920F920FB60F9211242F933F93E1
:100200008F939F93AF93BF9380912A0190912B017D
:10021000A0912C01B0912D013091290123E0230FF1
:100220002D3720F40196A11DB11D05C026E8230F2E
:100230000296A11DB11D2093290180932A0190935C
:100240002B01A0932C01B0932D0180912E01909150
:100250002F01A0913001B09131010196A11DB11D76
:1002600080932E0190932F01A0933001B093310120
:10027000BF91AF919F918F913F912F910F900FBEA2
:100280000F901F9018951F920F920FB60F92112486
:100290002F933F934F935F936F937F938F939F938E
:1002A000AF93BF93EF93FF938091010187FF05C048
:1002B00010928500109284001BC020910101022E33
:1002C000000C330B8091000190E02817390784F46B
:1002D00080910101082E000C990BFC01EE0FFF1F0D
:1002E0008E0F9F1FFC01EE5FFE4F808186FD15C0C3
:1002F000809101018F5F8093010120910101022E05
:10030000000C330B8091000190E028173907C4F4EA
:10031000809101018C3064F113C080910101082E9D
:10032000000C990BFC01EE0FFF1F8E0F9F1FFC01AD
:10033000EE5FFE4F808160E08F730E948700D8CF10
:100340008091840090918500049680349C4918F433
:1003500080E49CE905C0809184009091850004961A
:1003600090938900809388008FEF809301013BC0B8
:10037000209184003091850080910101082E000CAD
:10038000990BFC01EE0FFF1F8E0F9F1FFC01EE5F0C
:10039000FE4F81819281820F931F909389008093F9
:1003A000880080910101082E000C990BFC01EE0FD2
:1003B000FF1F8E0F9F1FFC01EE5FFE4F808186FFA7
:1003C00012C080910101082E000C990BFC01EE0F68
:1003D000FF1F8E0F9F1FFC01EE5FFE4F808161E0CB
:1003E0008F730E948700FF91EF91BF91AF919F9112
:1003F0008F917F916F915F914F913F912F910F90CE
:100400000FBE0F901F901895789484B5826084BDBC
:1004100084B5816084BD85B5826085BD85B5816008
:1004200085BD80916E00816080936E001092810086
:100430008091810082608093810080918100816041
:100440008093810080918000816080938000809102
:10045000B10084608093B1008091B000816080938E
:10046000B00080917A00846080937A0080917A0055
:10047000826080937A0080917A00816080937A0014
:1004800080917A00806880937A001092C1008091F8
:1004900026018C3008F068C0E9E9F0E02491E5E835
:1004A000F0E08491882399F090E0880F991FFC0177
:1004B000E859FF4FA591B491FC01EE58FF4F85918B
:1004C00094918FB7F894EC91E22BEC938FBF8091CD
:1004D0002601E82FF0E09F01220F331FE20FF31FE8
:1004E000EE5FFE4F9081907C99609083109227017F
:1004F000109228016CE00E94FD032CE0829FB00165
:10050000112440E050E09B01240F351FF901EE0F4C
:10051000FF1F2E0F3F1FF901EE5FFE4F908196FDEA
:1005200016C04F5F5F4F4C30510569F781110FC006
:100530001092800082E080938100109285001092DA
:100540008400B19A80916F00826080936F00E09187
:100550002601F0E0CF01880F991FE80FF91FEE5F29
:10056000FE4F80818064808308E810E0C8E5D2E017
:1005700024EB422E512C612C712C30E0232E30E0E4
:10058000332E40E440937C0080917A008064809315
:100590007A0080917A0086FDFCCFA091780080914E
:1005A0007900B0E0B82B24EB30E00E9409042FEF73
:1005B00033E040E050E00E949A03F901E03252E05B
:1005C000F507DCF5F7FD06C0E53BF1052CF0E4EBA3
:1005D000F0E002C0E0E0F0E0809127016801C81A75
:1005E000D10887FDD394D601AA0FBB1FAA0FBB1F4A
:1005F0006D01BB0FEE08FF08809128014E01881A9B
:10060000910887FD9394880C991C880C991C092CDF
:10061000000CAA08BB08A50194012C193D094E093C
:100620005F09DF010E94C403A30192010E949A03A3
:10063000C20ED31EE41EF51EF601209126012C30B9
:1006400080F580912701A801481B510987FD53952A
:10065000CA01880F991F880F991FE817F90784F0BE
:1006600080912801BE01681B710987FD7395660F93
:10067000771F660F771FCF016E177F070CF4CB0132
:100680000297880F991F6FB7F89430E0A901440FC3
:10069000551F240F351FF901EE5FFE4F92838183B2
:1006A0006FBF0E94D4004B015C018FE0C82ED12C9B
:1006B000E12CF12C0E94D400DC01CB0188199909AE
:1006C000AA09BB09883E9340A105B10598F351E002
:1006D000C51AD108E108F10888EE880E83E0981E5B
:1006E000A11CB11CC114D104E104F10419F72114B7
:1006F000310409F446CF0E94000043CF80910001ED
:100700008C30A0F491E0980F909300018093260123
:1007100090E0FC01EE0FFF1F8E0F9F1FFC01EE5FAC
:10072000FE4F88EB9BE09283818308958FEF809347
:1007300026010895052E97FB1EF400940E94B10334
:1007400057FD07D00E94CC0307FC03D04EF40C9455
:10075000B10350954095309521953F4F4F4F5F4FD6
:10076000089590958095709561957F4F8F4F9F4F1D
:1007700008950E94EE03A59F900DB49F900DA49F35
:10078000800D911D11240895B7FF0C94B9030E94A8
:10079000B903821B930B0895A1E21A2EAA1BBB1B5F
:1007A000FD010DC0AA1FBB1FEE1FFF1FA217B3073D
:1007B000E407F50720F0A21BB30BE40BF50B661F53
:1007C000771F881F991F1A9469F760957095809517
:1007D00090959B01AC01BD01CF010895A29FB0018E
:1007E000B39FC001A39F700D811D1124911DB29F65
:1007F000700D811D1124911D0895991B79E004C08D
:10080000991F961708F0961B881F7A95C9F780954F
:1008100008950E94EE03B7FF0895821B930B08957D
:10082000EE0FFF1F0590F491E02D0994F894FFCF8F
:00000001FF
